:100000005AC1000089C1000087C1000085C10000FD
:1000100083C1000081C100007FC100007DC10000DC
:100020007BC100000C944E100C949C0F0C94ED0EB0
:100030008AC4000071C100006FC100006DC10000E2
:100040006BC1000069C1000067C1000065C100000C
:1000500063C1000061C100005FC100000C94631F18
:100060005BC100000C94FF160C94D61655C100001D
:1000700053C1000051C100004FC100004DC100003C
:100080004BC1000049C1000047C1000045C100004C
:100090000C94AD160C9484163FC100000C94AD1F57
:1000A0003BC1000039C1000037C1000035C100006C
:1000B00033C1000031C100002FC100002DC100007C
:1000C0002BC1000029C1000027C100000C945B1661
:1000D0000C94321621C100000C9408160C94DE1505
:1000E0001BC10000C502CA02CF02D902E3025C03B1
:1000F000ED02F502FD02070311031B032A0334037B
:100100005C033E0348035203CF0ADD0AE90AF70AFB
:10011000030B460B5B0B7D0BA20BB50BE20B010C2B
:100120007C1D7F1D6E1D721D781DB61D831D871DD4
:100130008D1D911D951D9B1D9F1DA31DB61DA91DE8
:10014000AD1DB11D00002100240027002A002D0054
:100150003000330001010000040107010A01000022
:100160002200250028002B002E003100340002015F
:100170000000050108010B010000200023002600FB
:1001800029002C002F0032000001000003010601AD
:100190000901010101010101010102020202020241
:1001A000020203030303030303030404040404041B
:1001B00004040505050505050505060606060606EB
:1001C00006060707070707070707080808080808BB
:1001D000080803030303030303030A0A0A0A0A0ABB
:1001E0000A0A0B0B0B0B0B0B0B0B0C0C0C0C0C0C5B
:1001F0000C0C0102040810204080010204081020A9
:1002000040800102040810204080010204081020F0
:1002100040800102040810204080010204081020E0
:1002200040800102040810204080010204081020D0
:1002300040800102040810204080010204081020C0
:1002400040800102040810204080010204081020B0
:1002500040800000000000000000000000000703D4
:100260000401000000000000000000000000000089
:100270000000000000090A0B000000000000000060
:10028000000000000000000200000000000000006C
:1002900000000000000C0D0E08000000000000002F
:1002A000000000000000000000000000001011121B
:1002B00000008424062111241FBECFEFD1E2DEBF4F
:1002C000CDBF00E00CBF14E0A0E0B2E0E6EEF4E544
:1002D00000E00BBF02C007900D92A23BB107D9F717
:1002E0002DE0A2EBB4E001C01D92AA36B207E1F7FF
:1002F00011E0CAE5D1E000E006C021970109802F96
:10030000FE010E942929C935D10780E00807A9F715
:100310000E943B210C94622A73CEFC0181890895CE
:10032000AF92BF92CF92DF92EF92FF920F931F9303
:10033000CF93DF937C016B0100E010E0C42FD0E08D
:100340000C171D07DCF4D7011F96ED91FC91509717
:100350000190F081E02DA080B180D601ED91FC915B
:100360000680F781E02DC6011995682FF701878572
:100370009089F50119950F5F1F4FE2CFDF91CF9163
:100380001F910F91FF90EF90DF90CF90BF90AF90B3
:100390000895089580E00895DC0118968D919C9150
:1003A0001997DC01ED91FC910190F081E02D1994F9
:1003B0000895089508950895089508950895CF9291
:1003C000DF92EF92FF92CF93DF93EC01F8940E94BB
:1003D000571F6B017C01888D811104C04FEF5FEFC7
:1003E000BA0125C0498D5A8D6B8D7C8D4C195D09E4
:1003F0006E097F091416150616061706C4F0188E26
:100400008B899A89891741F08A8BEE85FF85309711
:1004100019F0688979891995888D8823F9F2498DB1
:100420005A8D6B8D7C8D4C195D096E097F0978940E
:1004300057FD0DC0052E000C660B770BCE01DF912A
:10044000CF91FF90EF90DF90CF900C941F14DF912D
:10045000CF91FF90EF90DF90CF9008958F929F9271
:10046000AF92BF92CF92DF92EF92FF920F931F93C2
:10047000CF93DF93EC01162F0E94571F2B89121781
:1004800099F11B8B0C891D892E893F896B017C0199
:10049000C00ED11EE21EF31E288D222379F0098D95
:1004A0001A8D2B8D3C8D46015701801A910AA20AA4
:1004B000B30A181419041A041B0434F4C98EDA8E12
:1004C000EB8EFC8E21E0288F288D222349F0C98CE9
:1004D000DA8CEB8CFC8CC61AD70AE80AF90A04C03D
:1004E000CC24CA94DC2C7601CE010E94B413D7FC34
:1004F00013C0A601DD0C660B770BCE01DF91CF9107
:100500001F910F91FF90EF90DF90CF90BF90AF9031
:100510009F908F900C941F14DF91CF911F910F919A
:10052000FF90EF90DF90CF90BF90AF909F908F9013
:100530000895DF92EF92FF920F931F93CF93DF9373
:100540008C01D62EC62FD0E0FC01E288F38861E052
:100550008E2D0E941B1F209709F4B1C0CF3FD105FB
:1005600009F4AFC0F701FF27EE5AFD4FE4914E2F7B
:1005700050E0FA013197E231F10508F09DC088277B
:10058000EE58FF4F8F4F0C94292984B5806884BDA5
:10059000D7BC9BC084B5806284BDD8BC96C0809116
:1005A0008000806880938000D0938900C093880089
:1005B0008CC080918000806280938000D0938B00FB
:1005C000C0938A0082C08091800088608093800000
:1005D000D0938D00C0938C0078C08091B00080686B
:1005E0008093B000D092B30070C08091B000806260
:1005F0008093B000D092B40068C080919000806871
:1006000080939000D0939900C09398005EC0809131
:100610009000806280939000D0939B00C0939A00DA
:1006200054C080919000886080939000D0939D008A
:10063000C0939C004AC08091A00080688093A00075
:100640008091A0008F7B8093A000D093A900C093DD
:10065000A8003BC08091A00080628093A000D0934E
:10066000AB00C093AA0031C08091A0008860809345
:10067000A000D093AD00C093AC0027C080912001B2
:10068000806880932001D0932901C09328011DC068
:1006900080912001806280932001D0932B01C09330
:1006A0002A0113C080912001886080932001D0939B
:1006B0002D01C0932C0109C0C038D10514F460E0AD
:1006C00001C061E08E2D0E94EC1EF801D18ADF91FD
:1006D000CF911F910F91FF90EF90DF90089560E010
:1006E000FC0182890C941B1FCF92DF92EF92FF9244
:1006F0000F931F93CF93DF936C017B0100E010E019
:10070000C42FD0E00C171D078CF4D701ED91FC919C
:100710000680F781E02DC7011995682FF6018785BE
:1007200090890E9486120F5F1F4FECCFDF91CF910F
:100730001F910F91FF90EF90DF90CF90089562E0AE
:10074000FC01878590890C941C131F93CF93DF9332
:10075000EC0162E08F8598890E941C1368EE73E0BB
:100760008F8598890E94DD1561E08A890E941B1F90
:100770001A8961E0812F0E941B1F60E0812F0E9477
:10078000EC1E198ADF91CF911F910895CF92DF92CD
:10079000EF92FF920F931F93CF93DF93DC0151965B
:1007A000ED90FC905297E114F10449F18B01EC01BA
:1007B000F701C080D180D60117961C92DB01ED9124
:1007C000FC910190F081E02DD6011A966C91C80140
:1007D0001995D601ED91FC910684F785E02DB801BD
:1007E000C6011995F701828193819A8B898BC70184
:1007F0000E94C62981E029893A89232B09F480E0E7
:10080000DF91CF911F910F91FF90EF90DF90CF90EC
:100810000895FC018AE993E09183808382EE92E05F
:10082000928F818F85A196A10C94C629FF920F9378
:100830001F93CF93DF938C01EB01FE80FF20F9F033
:100840008F8181111BC081E08F8384E090E00E9442
:100850003129FC01D183C08313821282D8015196C1
:10086000E801E989FA89309731F0DF0112960280B8
:10087000F381E02DF8CF8D939C9301C0F12C8F2D47
:10088000DF91CF911F910F91FF900895CF92DF924A
:10089000EF92FF92CF93DF93EC016A017B018C8191
:1008A0009D818131910519F0429759F019C0452B6E
:1008B000462B472B89F0C12CD12C7601C39461E0E3
:1008C0000CC08E819F810197029750F461E0C114A2
:1008D000D104E104F10409F460E08A810E94EC1E75
:1008E000C886D986EA86FB86DF91CF91FF90EF908C
:1008F000DF90CF9008950F931F93CF93CFB7F894C5
:100900000E94571F00913408109135082091360835
:1009100030913708CFBF600F711F821F931FCF9197
:100920001F910F910895029620E030E070E02617A5
:10093000370744F4009731F0FC01808591852F5FE3
:100940003F4FF5CF08951F920F920FB60F921124CB
:100950000BB60F92CF92DF92EF92FF920F931F93FD
:100960002F933F934F935F936F937F938F939F93B7
:10097000AF93BF93EF93FF9383B78E7F83BF209195
:100980002E0830912F088091340890913508A0915D
:100990003608B0913708820F931FA11DB11D8093B7
:1009A000340890933508A0933608B0933708109216
:1009B0002F0810922E080E94571F009130081091A6
:1009C00031082091320830913308C0903408D0901B
:1009D0003508E0903608F0903708AB01BC01401BA9
:1009E000510B620B730BD701C601841B950BA60B31
:1009F000B70B8093340890933508A0933608B093D2
:100A00003708FF91EF91BF91AF919F918F917F91A7
:100A10006F915F914F913F912F911F910F91FF9097
:100A2000EF90DF90CF900F900BBE0F900FBE0F9006
:100A30001F901895DC0117961C921797ED91FC9169
:100A40000484F585E02D1994BC01DC0112968D918A
:100A50009C911397DC01ED91FC910280F381E02DD4
:100A60001994CF93DF93EB01EC85FD852789308DB9
:100A7000621B730B45E352EC649F9001659F300D40
:100A8000749F300D1124220F331F61E08627682FD9
:100A9000622BCF0149969CD78C859D85DF91CF91A4
:100AA000D3CF0F931F93FC0188E892E0918380835A
:100AB000738362835583448316821782118610865E
:100AC00012863487238716870587DB011296EA177B
:100AD000FB0781F018968D919C911997009711F062
:100AE000DC01F8CF1996FC93EE9318971A968C9127
:100AF0008F5F82871F910F910895AF92BF92CF921F
:100B0000DF92EF92FF920F931F93CF93DF931F9289
:100B10001F92CDB7DEB78C015A017901623009F41A
:100B200050C028F4662351F06130A9F0F9C0633059
:100B300009F479C0643009F4B7C0F2C0D901ED916D
:100B4000FC91C080D180DC01ED91FC910288F38999
:100B5000E02D1995D5C0DA01ED91FC910480F58165
:100B6000E02DCA011995892B09F4DAC0D501ED9160
:100B7000FC910680F781E02DC5011995682FD801F9
:100B8000ED91FC910288F389E02DC8016A831995E3
:100B90006A81681708F0C4C0D801ED91FC91008803
:100BA000F189E02DA701C8010F900F90DF91CF913F
:100BB0001F910F91FF90EF90DF90CF90BF90AF907B
:100BC0001994DA01ED91FC910480F581E02DCA01C0
:100BD0001995892B09F4A4C0D501ED91FC910680EB
:100BE000F781E02DC5011995F82ED801ED91FC9102
:100BF0000288F389E02DC8011995F81608F090C015
:100C0000D801ED91FC91C488D588D501ED91FC9176
:100C10000480F581E02DC5011995282FA5016F2DC0
:100C2000C801F60134C0DA01ED91FC910480F58130
:100C3000E02DCA01199502970CF472C0D501ED910F
:100C4000FC910680F781E02DC5011995682FD5012B
:100C5000ED91FC910680F781E02DC5016A8319951D
:100C6000282FD801ED91FC910288F389E02DC8016D
:100C7000298319956A812981681708F051C0D80124
:100C8000ED91FC910688F789E02DA701C8010F902E
:100C90000F90DF91CF911F910F91FF90EF90DF9018
:100CA000CF90BF90AF901994DA01ED91FC91048040
:100CB000F581E02DCA011995892B91F1D501ED91AE
:100CC000FC910680F781E02DC5011995682FD801A8
:100CD000ED91FC910288F389E02DC8016A83199592
:100CE0006A816817E8F4D701ED91FC91C080D1804A
:100CF000D801ED91FC91008CF18DE02DC801199582
:100D0000682FC701F6010F900F90DF91CF911F91CF
:100D10000F91FF90EF90DF90CF90BF90AF9019941C
:100D20000F900F90DF91CF911F910F91FF90EF9057
:100D3000DF90CF90BF90AF900895CF92DF92EF9267
:100D4000FF920F931F93CF93DF93CDB7DEB76F97CB
:100D50000FB6F894DEBF0FBECDBF8B011F8EDC0136
:100D6000ED91FC91048CF58DE02DAE01415E5F4F5D
:100D7000BE016F5F7F4F1995D12C75E0C72E8F8D07
:100D8000D81608F058C0D801ED91FC91EE24E394F8
:100D9000F12CEC0EFD1ECD9CE00CF11C11240190F9
:100DA000F081E02DD7016C91C8011995F8012081DF
:100DB0003181F70181819281A381B4816B2F9927C1
:100DC00067FD9095792F892FD901ED91FC91C8018C
:100DD0001995F80120813181F70181819281A381E8
:100DE000B481BD01992777FD9095892FD901ED91A7
:100DF000FC91C8011995F80120813181F7018181A9
:100E00009281A381B481692F7A2F8B2F992787FD37
:100E10009A95D901ED91FC91C8011995D801ED91F0
:100E2000FC910190F081E02DD70111966C91C801E1
:100E30001995D394A4CF6F960FB6F894DEBF0FBE6A
:100E4000CDBFDF91CF911F910F91FF90EF90DF9079
:100E5000CF900895EF92FF920F931F93CF93DF935C
:100E60008C01DC01ED91FC910288F389E02D19954C
:100E7000E82EF12CC0E0D0E0CE15DF0574F4D801E7
:100E8000ED91FC91028CF38DE02D20E030E0A90182
:100E90006C2FC80119952196EFCFDF91CF911F914B
:100EA0000F91FF90EF9008954F925F926F927F9213
:100EB0008F929F92AF92BF92CF92DF92EF92FF926A
:100EC0000F931F93CF93DF93CDB7DEB768970FB61D
:100ED000F894DEBF0FBECDBF6C017A01890162308C
:100EE00009F46AC030F4662369F0613009F453C034
:100EF00074C2643009F49AC108F4ADC0653009F4D5
:100F0000C1C16BC2DC01ED91FC910088F189E02D3B
:100F100019957C01D801ED91FC91DC0111966C9141
:100F20000190F081E02DC8011995D801ED91FC9157
:100F30000190F081E02DD7016C91C8011995D8017D
:100F4000ED91FC91D70113966C910190F081E02D09
:100F5000C8011995D801ED91FC910190F081E02D27
:100F6000D70112966C91C8011995D801ED91FC91A9
:100F7000D70115966C910190F081E02DC80119956B
:100F8000D801ED91FC910190F081E02DD7011496EC
:100F90006C91C8011995D801ED91FC91E080F18028
:100FA000D601ED91FC910288F389E02DC6011995D7
:100FB000682FC801F701FAC1DA01ED91FC910480B4
:100FC000F581E02DCA011995181619060CF005C215
:100FD000D701ED91FC910680F781E02DC7011995AD
:100FE000F82ED601ED91FC910288F389E02DC6011F
:100FF0001995F81608F0F1C1D601ED91FC9104881D
:10100000F589E02D6F2DC6011995D62E672FF82E84
:10101000E92ED801ED91FC910190F081E02DC801FD
:101020001995D801ED91FC910190F081E02D6D2D85
:10103000C8011995D801ED91FC910190F081E02D46
:101040006E2DC8011995D801ED91FC910190F081A8
:10105000E02D6F2DAAC1DA01ED91FC910480F5819C
:10106000E02DCA011995181619060CF0B6C1D70162
:10107000ED91FC910680F781E02DC7011995F82EBE
:10108000D601ED91FC910288F389E02DC6011995F6
:10109000F81608F0A2C1D601ED91FC910488F589FB
:1010A000E02D6F2DC60119956330710509F095C1CA
:1010B000D601ED91FC910688F789E02D4F2DB60100
:1010C000CE010196199529813A814B815C81298B4A
:1010D0003A8B4B8B5C8B4D805E806F8078848984EB
:1010E0009A84AB84BC84CD84DE84EF84F888D801F4
:1010F000ED91FC91652F992767FD9095792F892FA8
:101100000190F081E02DC8011995D801ED91FC9175
:1011100029893A894B895C89BA01992777FD90958D
:10112000892F0190F081E02DC8011995D801ED912A
:10113000FC9129893A894B895C89992757FD9A95B1
:10114000852F742F632F0190F081E02DC801199530
:10115000D801ED91FC910190F081E02D6989C801E1
:101160001995D801ED91FC91672D992767FD909510
:10117000792F892F0190F081E02DC8011995D801B0
:10118000ED91FC91B301992777FD9095892F0190FE
:10119000F081E02DC8011995D801ED91FC919927B6
:1011A00077FC9A95872D762D652D0190F081E02DA5
:1011B000C8011995D801ED91FC910190F081E02DC5
:1011C000642DC8011995D801ED91FC916B2D9927DB
:1011D00067FD9095792F892F0190F081E02DC8014E
:1011E0001995D801ED91FC91B501992777FD90955E
:1011F000892F0190F081E02DC8011995D801ED915A
:10120000FC919927B7FC9A958B2D7A2D692D019029
:10121000F081E02DC8011995D801ED91FC91019064
:10122000F081E02D682DC80119958FC0DA01ED918C
:10123000FC910480F581E02DCA0119951816190654
:101240000CF0CBC0D701ED91FC910680F781E02D29
:10125000C7011995F82ED601ED91FC910288F3890A
:10126000E02DC6011995F81608F0B7C0D601ED912A
:10127000FC91008CF18DE02D6F2DC60119956B014D
:101280007C0163C0DA01ED91FC910480F581E02DD1
:10129000CA01199502970CF4A0C0D701ED91FC91F9
:1012A0000680F781E02DC7011995182FD701ED9120
:1012B000FC910680F781E02DC7011995282F880F32
:1012C000330B440B550BD701ED91FC910480F58154
:1012D000E02DC7012D8B3E8B4F8B588F19952D8993
:1012E0003E894F89588D1816190684F48824922E49
:1012F000A32EB42ED701ED91FC910680F781E02D4D
:10130000C7011995A5019401282BDDCFD601ED91D8
:10131000FC91028CF38DE02D612FC60168960FB60B
:10132000F894DEBF0FBECDBFDF91CF911F910F911B
:10133000FF90EF90DF90CF90BF90AF909F908F90F5
:101340007F906F905F904F901994D801ED91FC9130
:101350006F2D992767FD9095792F892F0190F08146
:10136000E02DC8011995D801ED91FC91B70199279D
:1013700077FD9095892F0190F081E02DC801199596
:10138000D801ED91FC919927F7FC9A958F2D7E2D30
:101390006D2D0190F081E02DC8011995D801ED91D6
:1013A000FC910190F081E02D6C2DC80168960FB67C
:1013B000F894DEBF0FBECDBFDF91CF911F910F918B
:1013C000FF90EF90DF90CF90BF90AF909F908F9065
:1013D0007F906F905F904F90199468960FB6F89435
:1013E000DEBF0FBECDBFDF91CF911F910F91FF9058
:1013F000EF90DF90CF90BF90AF909F908F907F90B5
:101400006F905F904F900895EF92FF920F931F930C
:10141000CF93DF938C01EA0179016230F1F128F476
:10142000662351F06130C1F088C0633009F450C0C8
:10143000643009F463C081C0E881F9810480F581DA
:10144000E02DCA011995892B09F477C0D801ED91D7
:10145000FC91E088F18830C0E881F9810480F58151
:10146000E02DCA011995892B09F467C0E881F9813B
:101470000680F781E02DCE011995D801ED91FC9100
:101480000288F389E02D482FB701C801DF91CF9181
:101490001F910F91FF90EF901994E881F9810480DA
:1014A000F581E02DCA011995892B09F446C0D801B0
:1014B000ED91FC91E488F588E881F9810480F5815B
:1014C000E02DCE011995482FBE01C801F701DECFEE
:1014D000D901ED91FC91C081D181DC01ED91FC91AC
:1014E0000688F789E02D1995682FC701FE01DF9165
:1014F000CF911F910F91FF90EF901994E881F9819E
:101500000480F581E02DCA011995892BB1F0D8012D
:10151000ED91FC91E08CF18CE881F9810680F781F6
:10152000E02DCE011995682FC801F701DF91CF9109
:101530001F910F91FF90EF901994DF91CF911F9120
:101540000F91FF90EF900895DC015296ED91FC9180
:101550005397BBE26B9FE00DF11D1124868908951E
:101560000895FC01848908958F929F92AF92BF9253
:10157000EF92FF920F931F93CF93DF93862E912CC0
:101580006CE08616910408F07FC18901EA017C01B4
:10159000F4018827EC57FF4F8F4F0C942929D7016E
:1015A0001296ED91FC911397638974896115710509
:1015B00009F041C165EF73E03EC1E701EA81FB81BB
:1015C000658976896115710509F035C16DEF73E0A4
:1015D00032C1D7011296ED91FC911397618D728DF6
:1015E0006115710509F027C168E074E024C1E701C5
:1015F000EA81FB816789708D6115710509F01BC156
:1016000063E174E018C1E881F9810480F581E02D7F
:10161000CA011995892B19F1E881F9810680F781B2
:10162000E02DCE011995682FF701828193817BD936
:10163000EC01009709F428C11E82FCD9E881F981E8
:101640000680F781E02DCE01DF91CF911F910F91A0
:10165000FF90EF90BF90AF909F908F901994D7011B
:101660001296CD91DC9113972296209709F40CC124
:101670001E82CE01DFD9E881F9810680F781E02D55
:10168000CE0119950884D985C02DEFCFE7018A8155
:101690009B81DC01ED91FC910190F081E02DB9017D
:1016A000DF91CF911F910F91FF90EF90BF90AF907E
:1016B0009F908F901994E881F9810480F581E02D45
:1016C000CA011995892B09F4DFC0E881F9810680E8
:1016D000F781E02DCE011995682FE7018A819B8162
:1016E00022D9009709F4D0C0D801ED91FC91019066
:1016F000F081E02DEC016E8159C0E881F981048010
:10170000F581E02DCA011995892B09F4BDC0E88146
:10171000F9810680F781E02DCE011995682FF70138
:101720008281938100D98C01892B09F4ADC0E881B5
:10173000F9810480F581E02DCE011995892B09F0FE
:1017400087C0A2C0D901ED91FC910190F081E02DFC
:10175000E701AA81BB81129660E0109739F16F5FB3
:1017600018960D90BC91A02DF8CFE881F9810480E6
:10177000F581E02DCA011995892B09F485C0E8810E
:10178000F9810680F781E02DCE011995682FF701C8
:1017900082819381C8D8009709F476C0D801ED9171
:1017A000FC910190F081E02DEC016C81C801DF918A
:1017B000CF911F910F91FF90EF90BF90AF909F90AE
:1017C0008F901994E881F9810480F581E02DCA0198
:1017D0001995892B09F458C0E881F9810680F781B1
:1017E000E02DCE011995682FF701828193819BD856
:1017F000009709F449C0DC011B966D917C911C9700
:101800001AC0E881F9810480F581E02DCA0119959B
:10181000892BD1F1E881F9810680F781E02DCE0195
:101820001995682FE7018A819B817DD8009761F126
:10183000FC0165857685C801DF91CF911F910F91DD
:10184000FF90EF90BF90AF909F908F900C94DD151C
:10185000E881F9810680F781E02DCE01199521E01C
:10186000892B09F420E0D80116962C9321110CC085
:10187000C801DF91CF911F910F91FF90EF90BF9022
:10188000AF909F908F90D6C8DF91CF911F910F910D
:10189000FF90EF90BF90AF909F908F900895CF9260
:1018A000DF92EF92FF920F931F93CF93DF93CDB709
:1018B000DEB78A01EDB6FEB6DC015296ED91FC91E1
:1018C0005397BBE26B9FE00DF11D1124422F50E0B6
:1018D0008DB79EB7841B950B0FB6F8949EBF0FBEB5
:1018E0008DBFADB7BEB711966D0186899789481730
:1018F00059070CF0282F422F50E0B601CF01049673
:101900000E943315D801ED91FC910280F381E02D06
:10191000AC01B601C80119950FB6F894FEBE0FBE12
:10192000EDBEDF91CF911F910F91FF90EF90DF906F
:10193000CF900895DC0111966C9111978C916817E6
:1019400031F081111AC06A3111F06232B1F412968D
:101950008C91129787FD11C08073803271F41B96B1
:10196000ED91FC911C97309741F01F964D915C9141
:1019700050976250CD01079619940895FC01118A81
:10198000108A138A128A08950895DC0152968D9167
:101990009C915397892B69F01C96ED91FC911D97B2
:1019A00050968D919C915197E80FF91F808190E09E
:1019B00008958FEF9FEF0895FC0186859785228912
:1019C0003389821B930B0895FC01828993890895C2
:1019D000FC01428953898685978548175907B9F0D4
:1019E00020893189240F351F2817390710F0281B4B
:1019F000390B84859585DC01A20FB31F6C93828916
:101A000093890196938B828B81E090E0089580E02A
:101A100090E00895FC014289538941155105B9F0C0
:101A200080899189A485B585A80FB91F2C9130E0D4
:101A30000196918B808B41505109538B428B468587
:101A400057858417950731F4118A108A03C08FEFE8
:101A50009FEF0895C9010895FC0124812F5F24831D
:101A6000E20FF11D648381E090E00895CF93DF934E
:101A70001F921F92CDB7DEB7CB01642F49835A83E3
:101A80000E94DE204981842F5A81952F0F900F905C
:101A9000DF91CF9108954091AE0750E04F5F5F4FC7
:101AA0006EEA77E08EE997E0E1CFCF93DF931F9264
:101AB000CDB7DEB7698361E0CE0101960E94DE20DA
:101AC00081E090E00F90DF91CF910895CF93DF9365
:101AD000EC0160E08E810E94EC1E61E08E810E942C
:101AE000EC1E60E08E810E94EC1E8BE891E0019775
:101AF000F1F7DF91CF9108951F93CF93DF93EC011E
:101B00000E941604182F882341F060E08B8D0E94FC
:101B1000EC1E61E08B8D0E941B1F812FDF91CF9106
:101B20001F9108950F931F93CF93DF93EC018B01C7
:101B300060E08B8D0E941B1FB801CE010E94C6037E
:101B4000182F882341F060E08B8D0E94EC1E61E02D
:101B50008B8D0E941B1F812FDF91CF911F910F91C1
:101B60000895CF931092AE0790912405809125059A
:101B7000981781F18EE997E00E94071EC82F909177
:101B8000240580912505981721F08EE997E00E94A1
:101B9000071E6C2F62956F7089EB9CE00E94930486
:101BA000009769F0DC01ED91FC916C2F6F70019052
:101BB000F081E02D2AEA37E04EE957E0199590913F
:101BC000240580912505981729F08EE997E00E9459
:101BD000071EF5CFCF9108951F93CF93DF93162F54
:101BE000EA01FC0165857685CA01E7D767E174E003
:101BF000CE01E3D7412F50E060E070E02AE0CE0153
:101C0000DF91CF911F9191C7CF92DF92EF92FF9218
:101C10000F931F93CF93DF93EC016B01E881F98160
:101C20000288F389E02D1995082F1F85F12CE12CEE
:101C3000F01609F443C0E881F981008CF18DE02DA4
:101C4000612FCE011995882399F1EE2059F0CE012C
:101C5000DF91CF911F910F91FF90EF90DF90CF9088
:101C60000C942405D601ED91FC910190F081E02DBA
:101C7000612FC6011995E881F9810688F789E02D61
:101C800029E1A601612FCE01199581E0810F80170E
:101C900010F48F8701C01F86E881F981008CF18DD7
:101CA000E02D612FCE0119958111D1CFEE24E3945F
:101CB0001F5F101708F010E0F394BACFDF91CF91B7
:101CC0001F910F91FF90EF90DF90CF900895CF93E9
:101CD000DF9348EF480F483078F098EB980F973033
:101CE00008F470C0803269F090EB980F983008F4D7
:101CF00057C0C0E0D0E056C0942FE0E0ABE6B0E0C3
:101D000066C0E1E0ACE6B0E0C8E6D0E090E0F0E02C
:101D1000EE0FFF1FE856FD4F60817181209709F497
:101D200059C0109709F456C06115710509F452C0E5
:101D3000292F30E05FB7F894220F331F220F331F93
:101D4000260F371FF901118210821382128221E0BF
:101D500030E001C0220F9A95EAF72095FB0191A18E
:101D6000922391A392A1922392A39C9129232C9335
:101D70009C91911113C09881483048F028EB280FAE
:101D8000273038F0803229F08055883020F08EEFEF
:101D900003C08DEF01C08BEF892388835FBF1AC01A
:101DA000C8E6D0E0983030F0A0E0B0E0983028F0FD
:101DB000E0E004C0ADE6B0E0F9CFE2E0983008F032
:101DC000A5CFA5CF99EB980FE1E0ACE6B0E0C8E66F
:101DD000D0E09DCFDF91CF9108951F920F920FB663
:101DE0000F9211240BB60F922F933F934F935F9353
:101DF0006F937F938F939F93AF93BF93CF93DF9313
:101E0000EF93FF93C091060120916D00DC2FD095D8
:101E10008091D404D8239091D3049C238D2F892BB7
:101E2000D091D204DC27D223D823C093D204D0FF90
:101E30000BC0E091B204F091B3046C2F61708091FB
:101E4000B4049091B5041995D1FF0CC0C1FB66276D
:101E500060F9E091B604F091B7048091B8049091D4
:101E6000B9041995D2FF0CC0C2FB662760F9E09156
:101E7000BA04F091BB048091BC049091BD04199503
:101E8000D3FF0CC0C3FB662760F9E091BE04F0915C
:101E9000BF048091C0049091C1041995D4FF0CC077
:101EA000C4FB662760F9E091C204F091C3048091FD
:101EB000C4049091C5041995D5FF0CC0C5FB6627D5
:101EC00060F9E091C604F091C7048091C804909134
:101ED000C9041995D6FF0CC0C6FB662760F9E091CE
:101EE000CA04F091CB048091CC049091CD04199553
:101EF000D7FF0DC06C2F661F6627661FE091CE04CA
:101F0000F091CF048091D0049091D1041995FF9164
:101F1000EF91DF91CF91BF91AF919F918F917F9181
:101F20006F915F914F913F912F910F900BBE0F904A
:101F30000FBE0F901F9018951F920F920FB60F9221
:101F400011240BB60F922F933F934F935F936F9390
:101F50007F938F939F93AF93BF93CF93DF93EF9331
:101F6000FF938CB1C0910301CC0F8170C82B2091DD
:101F70006C00D091F604DC238C2F80959091F704AF
:101F800089238D2BD091F504DC27D223D823C0934D
:101F9000F504D0FF0BC0E091D504F091D6046C2F6E
:101FA00061708091D7049091D8041995D1FF0CC02D
:101FB000C1FB662760F9E091D904F091DA048091C1
:101FC000DB049091DC041995D2FF0CC0C2FB66279C
:101FD00060F9E091DD04F091DE048091DF049091DE
:101FE000E0041995D3FF0CC0C3FB662760F9E091AC
:101FF000E104F091E2048091E3049091E4041995E6
:10200000D4FF0CC0C4FB662760F9E091E504F091B1
:10201000E6048091E7049091E8041995D5FF0CC07F
:10202000C5FB662760F9E091E904F091EA0480912C
:10203000EB049091EC041995D6FF0CC0C6FB662703
:1020400060F9E091ED04F091EE048091EF0490913D
:10205000F0041995D7FF0DC06C2F661F6627661F09
:10206000E091F104F091F2048091F3049091F40472
:102070001995FF91EF91DF91CF91BF91AF919F9112
:102080008F917F916F915F914F913F912F910F9021
:102090000BBE0F900FBE0F901F9018951F920F92BE
:1020A0000FB60F9211240BB60F922F933F934F93BD
:1020B0005F936F937F938F939F93AF93BF93CF93D0
:1020C000DF93EF93FF93C3B120916B00DC2FD0958A
:1020D00080911A05D823909119059C238D2F892B67
:1020E000D0911805DC27D223D823C0931805D0FF40
:1020F0000BC0E091F804F091F9046C2F61708091AD
:10210000FA049091FB041995D1FF0CC0C1FB66271E
:1021100060F9E091FC04F091FD048091FE0490913F
:10212000FF041995D2FF0CC0C2FB662760F9E0914D
:102130000005F09101058091020590910305199524
:10214000D3FF0CC0C3FB662760F9E0910405F09152
:10215000050580910605909107051995D4FF0CC0DF
:10216000C4FB662760F9E0910805F09109058091AC
:102170000A0590910B051995D5FF0CC0C5FB662784
:1021800060F9E0910C05F0910D0580910E0590919C
:102190000F051995D6FF0CC0C6FB662760F9E091C4
:1021A0001005F09111058091120590911305199574
:1021B000D7FF0DC06C2F661F6627661FE0911405C0
:1021C000F091150580911605909117051995FF91CD
:1021D000EF91DF91CF91BF91AF919F918F917F91BF
:1021E0006F915F914F913F912F910F900BBE0F9088
:1021F0000FBE0F901F9018950F931F93CF93DF93EF
:10220000EC019A819C709C30B9F40E94571F0B819D
:102210001C812D813E81DC01CB01801B910BA20B27
:10222000B30B85369105A105B10530F0CE0182DBF7
:1022300019828A818F708A83DF91CF911F910F91CC
:1022400008951F93CF93DF93EC01611102C021E049
:1022500001C022E09A81322F392381E009F480E025
:10226000841709F4AAC0442311F0922B02C02095D0
:1022700092239A83162FCE01BFDF0E94571F6B83D4
:102280007C838D839E838A81982F9370933009F08D
:1022900082C082FD0AC084688A83ED85FE853097FE
:1022A00021F069897A8981E019959A81892F8C704A
:1022B0008C3009F082C08981823210F090689A8354
:1022C0009A8197FD7AC071E0111101C070E081110F
:1022D00005C0772309F44BC0906148C08230E0F01C
:1022E0004EEF480FE42FF0E0477053E0F595E79587
:1022F0005A95E1F7EC0FFD1F20E830E002C035955C
:1023000027954A95E2F796FF03C03781232B03C038
:102310002095378123232783772319F020E2922702
:102320009A8380FF24C0833010F1282F30E023509F
:102330003109A901559547954770A0E8B0E002C062
:10234000B595A7954A95E2F744E0359527954A95C6
:10235000E1F7FE01E20FF31F478150E09D012423C6
:102360003523232B21F02A8190E392279A838F5FD4
:1023700089839A81772311F0906401C09F7B9A83AF
:1023800098819923D1F0891318C0CE01D3DA8A81BC
:1023900080688A8312C0911110C082FF0EC08B7FAB
:1023A00080688A83ED85FE85309739F069897A895E
:1023B00080E0DF91CF911F911994DF91CF911F9110
:1023C00008950F931F93CF93DF93EC018B011B8232
:1023D0001A8288EE93E0A0E0B0E08C839D83AE8308
:1023E000BF8382EE92E099838883CB010E943129DA
:1023F0009D878C871F870E87198A188A1B8A1A8ADD
:10240000DF91CF911F910F910895CF92DF92EF92BC
:10241000FF920F931F93CF93DF937C016C0187E0B2
:10242000C80ED11CC0E0D0E0062F10E0B8010C2E81
:1024300002C0759567950A94E2F76170F601819183
:102440006F010E94EC1E2196C430D10579F7C701B7
:10245000DF91CF911F910F91FF90EF90DF90CF9080
:1024600035CBCF92DF92EF92FF920F931F93CF93D2
:10247000DF93EC01F62E642F8C810E94EC1E8D817F
:102480008F3F19F060E00E94EC1E8F850F2D10E049
:1024900084FF24C06E0187E0C80ED11CE12CF12C12
:1024A000B8010E2C02C0759567950A94E2F7617029
:1024B000F60181916F010E94EC1EFFEFEF1AFF0AF7
:1024C00088E0E816F10461F7CE01DF91CF911F910A
:1024D0000F91FF90EF90DF90CF90F8CAB80184E0A1
:1024E000759567958A95E1F7CE018FDF6F2DCE0147
:1024F000DF91CF911F910F91FF90EF90DF90CF90E0
:1025000084CF41E0AEDF81E090E0089540E0A9CFC4
:102510000F931F93CF93DF93DC018FB7F894E09173
:102520003A08F0913B08309799F012964D915D91E1
:102530006D917C911597028113812481358140171B
:1025400051076207730798F41796FC93EE9316975A
:10255000B0933B08A0933A0814C00A811B812C81D8
:102560003D81401751076207730728F0FE01C681BD
:10257000D781209791F71796DC93CE931697B78360
:10258000A6838FBFDF91CF911F910F910895CF92B6
:10259000DF92EF92FF920F931F93CF93DF936C0123
:1025A0007A018B01C0E0D0E0CE15DF0589F0D801BB
:1025B0006D918D01D601ED91FC910190F081E02D9E
:1025C000C6011995892B11F47E0102C02196ECCF2A
:1025D000C701DF91CF911F910F91FF90EF90DF9096
:1025E000CF9008950E945E2A8AE295E00E94281DFD
:1025F00021E0892B09F420E0822F089587EC95E0F3
:102600000E94281D21E0892B09F420E0822F0895E3
:1026100084E696E00E94281D21E0892B09F420E041
:10262000822F089581E097E00E94281D21E0892BE8
:1026300009F420E0822F0895EF92FF920F931F93E9
:10264000CF93DF93EC01623018F08F8588608F871D
:102650006B8B1C8A80E48D8B80E18E8B80E58F8B69
:1026600061E08C810E941B1F8D818F3F19F061E01A
:102670000E941B1F61E08E810E941B1F7E0187E06C
:10268000E80EF11C00E010E08F8584FD03C084E0BB
:1026900090E002C088E090E0081719074CF461E070
:1026A000F70181917F010E941B1F0F5F1F4FECCF2D
:1026B0008BE39DE00197F1F760E08C810E94EC1EB6
:1026C00060E08E810E94EC1E8D818F3F19F060E0EA
:1026D0000E94EC1E6F8564FD19C063E0CE0195DE9B
:1026E0000BE416E4C8010197F1F763E0CE018DDE3B
:1026F000C8010197F1F763E0CE0187DE83E592E040
:102700000197F1F762E0CE0180DE13C06062CE0176
:10271000FDDE8BE496E40197F1F76F856062CE01F0
:10272000F5DE83E592E00197F1F76F856062CE01F7
:10273000EDDE6F856062CE01E9DE84E0888B6CE0BF
:10274000CE01E4DE61E0CE01E1DE8BE39FE10197A3
:10275000F1F782E0898B66E0CE01DF91CF911F9186
:102760000F91FF90EF90D2CEBF92CF92DF92EF9277
:10277000FF920F931F93CF93DF93DFB6F894C0912E
:102780003A08D0913B08209719F17C0100E010E055
:10279000E881F9810280F381E02DCE0119952E8127
:1027A0009F81811124C0488559854E155F05F9F434
:1027B00001151105C1F420933A0890933B08BE809F
:1027C000CF80CE010E94C629CB2DDC2D209701F7AA
:1027D000DFBEDF91CF911F910F91FF90EF90DF90BF
:1027E000CF90BF900895F80126839783E8CF8E019C
:1027F000C22FD92FEBCFCF92DF92EF92FF92CF93E0
:10280000DF93EC010E947B046B017C018AE090E085
:102810000E943129FC01C282D382E482F5821782B0
:10282000168282EA92E091838083D187C087CF01AC
:10283000DF91CF91FF90EF90DF90CF9069CE8F9294
:102840009F92AF92BF92CF92DF92EF92FF92CF937F
:10285000DF93EC016A017B010E947B044B015C0168
:102860008AE090E00E943129FC01C80CD91CEA1CC6
:10287000FB1CC282D382E482F5821782168282EA2E
:1028800092E091838083D187C087CF01DF91CF9180
:10289000FF90EF90DF90CF90BF90AF909F908F9080
:1028A00037CE8F929F92BF92CF92DF92EF92FF929C
:1028B0000F931F93CF93DF9398EFB92EB80E97E045
:1028C0009B1578F498EB980F973008F4B6C08032D7
:1028D00081F090EB980F983008F49BC0812C912CDC
:1028E0009BC09B2DCBE6D0E008E6802E912CC12C1E
:1028F00008C0CCE6D0E018E6812E912CCC24C394FD
:1029000090E0EC2DF0E0EE0FFF1FE856FD4F019038
:10291000F081E02D8114910409F499C0209709F405
:1029200096C0309709F493C06115710509F48FC002
:10293000092F10E021E030E002C0220F331F9A95EA
:10294000E2F7DFB6F894000F111F000F111F7F018F
:10295000E00EF11ED70111967C936E9313965C9353
:102960004E93129791A1922B91A392A1922B92A395
:102970009881922B9883E4019881D7E0DB1548F485
:1029800048EB480F473038F0803229F080558830C6
:1029900020F081E003C082E001C084E0892BD401F3
:1029A0008C9380A1622F60956823B1E0CB1629F04B
:1029B000C2E0CC1649F083B109C09CB180910301FB
:1029C000880F9170892B02C0809106018223682BA9
:1029D00060A3862F90E08095909542A150E08423DB
:1029E000952341A14623842B82239323892B79F0BD
:1029F000262361E009F460E0DF01A00FB11FE701C9
:102A0000E881F98112968D919C9113971995DFBEFB
:102A10001EC0E8E68E2E912C983030F0C0E0D0E059
:102A2000983028F0C12C05C0CDE6D0E0F9CF32E0D7
:102A3000C32E983008F064CF64CF99EB980FCCE6A2
:102A4000D0E028E6822E912CCC24C3945ACFDF917B
:102A5000CF911F910F91FF90EF90DF90CF90BF909B
:102A60009F908F9008958F929F92AF92BF92CF9236
:102A7000DF92EF92FF920F931F93CF93DF93EC01BE
:102A80006A017B0100E010E00C151D0559F10E9460
:102A9000571F688779878A879B87E881F981068035
:102AA000F781E02DCE01199597FF16C00E94571FA0
:102AB00088849984AA84BB84DC01CB018819990994
:102AC000AA09BB098C809D80AE80BF8088159905BE
:102AD000AA05BB0510F306C0F70181937F010F5FC4
:102AE0001F4FD2CFC801DF91CF911F910F91FF905F
:102AF000EF90DF90CF90BF90AF909F908F90089510
:102B00006115710579F0FB0101900020E9F731971B
:102B1000AF01461B570BDC01ED91FC910280F38164
:102B2000E02D199480E090E008954F925F926F92AB
:102B30007F92EF92FF920F931F93CF93DF93CDB7C6
:102B4000DEB7A1970FB6F894DEBF0FBECDBF7C01F4
:102B5000FA01CB0119A2223008F42AE08E010F5DA0
:102B60001F4F422E512C612C712CBF01A3019201E9
:102B70000E940729F901CA01015011096A3014F4B1
:102B8000605D01C0695CD8016C93232B242B252B3D
:102B900061F7B801C701B4DFA1960FB6F894DEBFA4
:102BA0000FBECDBFDF91CF911F910F91FF90EF909E
:102BB0007F906F905F904F900895A2CF1F920F92D9
:102BC0000FB60F9211240BB60F922F933F934F9392
:102BD0005F936F937F938F939F93AF93BF93EF9385
:102BE000FF938AE295E00E943C1EFF91EF91BF9116
:102BF000AF919F918F917F916F915F914F913F9195
:102C00002F910F900BBE0F900FBE0F901F90189535
:102C10001F920F920FB60F9211240BB60F922F93A3
:102C20003F934F935F936F937F938F939F93AF9354
:102C3000BF93EF93FF938AE295E00E94231EFF91DA
:102C4000EF91BF91AF919F918F917F916F915F9124
:102C50004F913F912F910F900BBE0F900FBE0F9091
:102C60001F9018951F920F920FB60F9211240BB65A
:102C70000F922F933F934F935F936F937F938F9315
:102C80009F93AF93BF93EF93FF9387EC95E0F4D7B7
:102C9000FF91EF91BF91AF919F918F917F916F9134
:102CA0005F914F913F912F910F900BBE0F900FBEF0
:102CB0000F901F9018951F920F920FB60F9211242C
:102CC0000BB60F922F933F934F935F936F937F9326
:102CD0008F939F93AF93BF93EF93FF9387EC95E010
:102CE000B2D7FF91EF91BF91AF919F918F917F915B
:102CF0006F915F914F913F912F910F900BBE0F906D
:102D00000FBE0F901F9018951F920F920FB60F9243
:102D100011240BB60F922F933F934F935F936F93B2
:102D20007F938F939F93AF93BF93EF93FF9384E62B
:102D300096E0A2D7FF91EF91BF91AF919F918F91B4
:102D40007F916F915F914F913F912F910F900BBEAB
:102D50000F900FBE0F901F9018951F920F920FB6F5
:102D60000F9211240BB60F922F933F934F935F93C3
:102D70006F937F938F939F93AF93BF93EF93FF9343
:102D800084E696E060D7FF91EF91BF91AF919F915C
:102D90008F917F916F915F914F913F912F910F9004
:102DA0000BBE0F900FBE0F901F9018951F920F92A1
:102DB0000FB60F9211240BB60F922F933F934F93A0
:102DC0005F936F937F938F939F93AF93BF93EF9393
:102DD000FF9381E097E050D7FF91EF91BF91AF91C2
:102DE0009F918F917F916F915F914F913F912F9123
:102DF0000F900BBE0F900FBE0F901F9018951F9253
:102E00000F920FB60F9211240BB60F922F933F9390
:102E10004F935F936F937F938F939F93AF93BF93E2
:102E2000EF93FF9381E097E00ED7FF91EF91BF9171
:102E3000AF919F918F917F916F915F914F913F9152
:102E40002F910F900BBE0F900FBE0F901F901895F3
:102E5000089520E1FC0111922A95E9F70895DC011B
:102E60005F96ED91FC919097B6E06B9FE00DF11DA0
:102E700011246481658370E080E090E00895DC01B6
:102E80005F96ED91FC919097B6E06B9FE00DF11D80
:102E9000112460817181828193810895FC01958D57
:102EA000818D989F802D1124089541960895DC010D
:102EB00052962C91529753968C91E22FF82FE60F51
:102EC000F11DE60FF11D80819181DC01ED91FC91F6
:102ED0000480F581E02D19950895FC0184890895F9
:102EE0004FEF53E060E070E0FC0140835183628368
:102EF00073831482158216821782108611861286B9
:102F0000138614861586168617860895DC01579653
:102F1000ED91FC915897BDE16B9FE00DF11D1124DF
:102F200064817581868197810895FC018589089562
:102F30000F960895CF92DF92EF92FF920F931F9317
:102F4000CF937C016B018A01C0E0D701ED91FC9128
:102F50000288F389E02DC7011995F8019081C817FF
:102F600088F5963078F5D7015F96ED91FC919097B2
:102F7000B6E0CB9FE00DF11D112484819581981757
:102F8000F9F08583D8018C91D60195E0899FA00D39
:102F9000B11D1124CC93D8018C919601B5E08B9F83
:102FA000200D311D1124858190E0A0E0B0E0F901F1
:102FB00081839283A383B483D8018C918F5F8C9398
:102FC000CF5FC3CF963051F4C701CF911F910F91BE
:102FD000FF90EF90DF90CF900C942405CF911F913C
:102FE0000F91FF90EF90DF90CF900895EF92FF92B6
:102FF0000F931F93CF93DF93EC014096B5DB00E076
:1030000010E0E12CF12C8C899D89E816F9064CF52D
:10301000EA89FB89E00FF11F828D8770828FEA8930
:10302000FB89E00FF11F80810E94670EEA89FB890E
:10303000E00FF11F82810E94670EEA89FB89E00F91
:10304000F11F60E08081F7D6EA89FB89E00FF11F6C
:1030500060E08281F0D68FEFE81AF80A055D1F4F15
:10306000D2CFDF91CF911F910F91FF90EF900895F4
:103070001F93CF93DF93EC010F9676DB498D5A8D2A
:103080008D8D9E8D489F9001499F300D589F300D2A
:10309000112480E0482F50E0421753075CF4EF8D75
:1030A000F8A196E0899FE00DF11D1124148215828C
:1030B0008F5FF0CF10E0812F90E0298D3A8D82173D
:1030C00093075CF4880F991FEF89F88DE80FF91FBB
:1030D00060E08081B0D61F5FEECF10E0812F90E0DE
:1030E0002D8D3E8D821793075CF4880F991FEB8D11
:1030F000FC8DE80FF91F60E080819DD61F5FEECF49
:10310000DF91CF911F910895EF92FF920F931F933C
:10311000CF93DF937C01409627DB00E010E0F701BE
:10312000848995890817190764F5C801880F991FC4
:10313000D7015296ED91FC915397E80FF91FC0818A
:10314000D181E881F9810284F385E02DCE011995C2
:10315000EA89FB8980818F7E8083EA89FB8980816F
:10316000877F8083EA89FB8980818F778083EA89E2
:10317000FB8980818F7D80838A8D898F0F5F1F4FB0
:10318000CECFDF91CF911F910F91FF90EF900895D7
:103190000F931F93CF93DF93EC01298D3A8D8D8D83
:1031A0009E8D289FA001299F500D389F500D1124FE
:1031B00020E030E080E090E08417950754F4EF8D34
:1031C000F8A1E20FF31F1482158201962A5F3F4F88
:1031D000F3CF00E010E0898D9A8D081719076CF481
:1031E000C801880F991FEF89F88DE80FF91F62E079
:1031F000808121D60F5F1F4FEECF00E010E08D8D54
:103200009E8D081719076CF4C801880F991FEB8D64
:10321000FC8DE80FF91F62E080810DD60F5F1F4F14
:10322000EECF19A21AA2CE010F96DF91CF911F9176
:103230000F91E1CACF9320E030E062E07FECC6E07E
:10324000FC01448955892417350794F5A901440FD9
:10325000551FDC015296ED91FC915397E40FF51F39
:103260000190F081E02DA089B1896C93A485B5858A
:103270001C92A685B7857C93108EA489B589CC93C2
:10328000A289B3894C9140614C93A289B3894C9136
:1032900048604C93A289B3894C9140684C93028852
:1032A000F389E02D40814F7D40832F5F3F4FC8CF92
:1032B0004096CF91A0CAAF92BF92CF92DF92EF9289
:1032C000FF920F931F93CF93DF938C01E12CF12C8E
:1032D000A12CB12C8AEDC82E89E1D82ED8015496A4
:1032E0008D919C915597A816B9060CF04EC0D80147
:1032F0005296CD91DC915397CE0DDF1DDCA2CBA26F
:10330000CE01049698A78FA3188E8A8D877088683F
:103310008A8FCDD56B8F7C8F8D8F9E8FD8015296E3
:10332000ED91FC915397EE0DFF1D62E0808183D5F6
:10333000D8015296ED91FC915397EE0DFF1D62E07E
:10334000828179D5D8015296ED91FC915397EE0D7B
:10335000FF1DAF01485E5F4F66ED79E18081A1DA24
:10336000D8015296ED91FC915397EE0DFF1DAF01E0
:10337000485E5F4F62ED79E1828193DABFEFAB1A6D
:10338000BB0AEBE2EE0EF11CA9CFC8014096DF911B
:10339000CF911F910F91FF90EF90DF90CF90BF9052
:1033A000AF9029CA462F61E00C942111462F60E0AE
:1033B0000C942111CF92DF92EF92FF920F931F9303
:1033C000CF93DF936C017A01C62FD0E0279693E06C
:1033D000D595C7959A95E1F7DA01ED91FC910484B2
:1033E000F585E02DCA0119959E012F5F3F4F220FF1
:1033F000331F821793076CF18601CC0DDD1D0C176E
:103400001D07D9F06801F80141918F0150E084E077
:10341000559547958A95E1F7052E000C660B770BBD
:1034200020E1C70182DBD6014C914F7050E060E093
:1034300070E020E1C70179DBE2CF66E274E0C7010A
:10344000DF91CF911F910F91FF90EF90DF90CF9080
:1034500057CBDF91CF911F910F91FF90EF90DF90AD
:10346000CF900895CF93DF93FC01C789D08DFDE104
:103470006F9FC00DD11D11248C819D8183309105DA
:1034800089F18530910519F0019709F052C08A81C0
:103490009B819C01285031092830310568F0205467
:1034A00031092730310540F08032910529F028504C
:1034B00031092830310538F49A8981E0892790E074
:1034C000A0E0B0E032C060D441E050E060E070E0E5
:1034D000892B19F040E050E0BA01488759876A8784
:1034E0007B8727C08A81863308F0865390917B00C2
:1034F000282F2870977F922B90937B008770806491
:1035000080937C0080917A00806480937A0080911F
:103510007A0086FDFCCF809178002091790090E0C0
:10352000922B092E000CAA0BBB0B88879987AA87C0
:10353000BB87688579858A859B85DF91CF910895C2
:103540008F929F92AF92BF92CF92DF92EF92FF92B3
:103550000F931F93CF93DF931F92CDB7DEB77A01FE
:10356000CDB6DEB6DC0152963C91529753968C91C3
:10357000E32FF82FE60FF11DE60FF11D00811181F9
:10358000822E912CEDB7FEB7E819F9090FB6F89421
:10359000FEBF0FBEEDBF8DB79EB701965C01D8018F
:1035A000ED91FC910480F581E02DC80129831995E6
:1035B0002981881699064CF0D801ED91FC91048080
:1035C000F581E02DC8011995282F422F50E0B50153
:1035D000C80149DAD701ED91FC910280F381E02D19
:1035E000AC01B501C70119950FB6F894DEBE0FBE48
:1035F000CDBE0F90DF91CF911F910F91FF90EF9073
:10360000DF90CF90BF90AF909F908F900895CF9212
:10361000DF92EF92FF920F931F93CF93DF93CDB77B
:10362000DEB7DA01CDB6DEB6FC0132898389E32F3D
:10363000F82FE60FF11DE60FF11D00811181422FD9
:1036400050E08DB79EB7841B950B0FB6F8949EBFC4
:103650000FBE8DBFEDB7FEB731967F01BF01CD0123
:1036600002DAD801ED91FC910280F381E02DAC01EA
:10367000B701C80119950FB6F894DEBE0FBECDBED6
:10368000DF91CF911F910F91FF90EF90DF90CF903E
:1036900008958F929F92AF92BF92CF92DF92EF9256
:1036A000FF920F931F93CF93DF938C017B01EA016D
:1036B0006C0139E1C30ED11C2DE1B22ED8019B96CD
:1036C0008D919C919C97892B09F43FC0888186300D
:1036D000E0F5C6010E940A0D9C0133273595279518
:1036E000482F417050E060E070E0B29EC001B39E90
:1036F000900D1124D8015796ED91FC915897E80F41
:10370000F91F80859185A285B38584179507A60743
:10371000B707A1F240875187628773878881F701D5
:10372000B5E08B9FE00DF11D112420838881F70106
:1037300035E0839FE00DF11D1124418352836383A3
:10374000748388818F5F8883B9CFD12CD801ED91A4
:10375000FC910288F389E02DC80119959881D8164B
:1037600010F4963090F0963009F043C0C801DF9114
:10377000CF911F910F91FF90EF90DF90CF90BF906E
:10378000AF909F908F900C942405D8015796ED919F
:10379000FC915897BDE1DB9EE00DF11D1124808462
:1037A0009184A284B384D801ED91FC91008CF18DB9
:1037B000E02D6D2DC801199586169706A806B90645
:1037C000B1F02881F701B5E02B9FE00DF11D112428
:1037D000D0822881F70135E0239FE00DF11D1124EF
:1037E000618372838383948388818F5F8883D3947A
:1037F000ADCFDF91CF911F910F91FF90EF90DF90B0
:10380000CF90BF90AF909F908F900895E62FBA0110
:10381000A901DC0157968D919C915897BDE1EB9FD2
:10382000800D911D11240C944604CF92DF92EF92EB
:10383000FF920F931F93CF93DF936C01E12CF12C38
:1038400000E010E0F60185899689081719070CF049
:103850003EC0F601C789D08DCE0DDF1D2C813D8184
:103860002530310571F038F42130310551F0233025
:103870003105F1F020C02151310922303105D8F451
:1038800017C08A819B819C0128503109283031055D
:1038900068F0205431092730310540F0803291051D
:1038A00029F0285031092830310510F40E94670EA4
:1038B00060E08A81C0D240E050E0BA01CE010E94AF
:1038C00046040F5F1F4FFDE1EF0EF11CBBCFDF91F0
:1038D000CF911F910F91FF90EF90DF90CF900895BF
:1038E0004F925F926F927F92AF92BF92CF92DF9290
:1038F000EF92FF920F931F93CF93DF938C01FC0104
:1039000012A611A614A613A6C12CD12CE12CF12CC1
:1039100085E0482E512C612C712C91E3A92E95E065
:10392000B92EF80185899689E816F9060CF05FC072
:10393000F801C789D08DCC0DDD1D1D870C872C812A
:103940003D8125303105C1F058F421303105A1F019
:103950002330310509F03EC060E08A816CD23AC064
:103960002151310922303105A8F561E08A8163D205
:1039700060E08A8131D22EC062E08A815CD28A8185
:103980009B819C01285031092830310568F0205472
:1039900031092730310540F08032910529F0285057
:1039A000310928303105B0F4EFD121E0892B09F439
:1039B00020E0188E2A8B2B8B4C8A5D8A6E8A7F8A38
:1039C000BF86AE86D98BC88BAE016EE272E08A816B
:1039D0000E94511440E050E0BA01CE010E9446041A
:1039E000FFEFEF1AFF0A8DE1C80ED11C9ACFDF91CD
:1039F000CF911F910F91FF90EF90DF90CF90BF90EC
:103A0000AF907F906F905F904F900895FC01918DE3
:103A1000828D981761F0828DDF01A80FB11D5D9630
:103A20008C91928D9F5F9F73928F90E008958FEF9E
:103A30009FEF0895FC01918D828D981731F0828D52
:103A4000E80FF11D858D90E008958FEF9FEF0895A9
:103A5000FC01918D228D892F90E0805C9F4F821B0D
:103A600091098F739927089580E090E0892B21F0C8
:103A70000E941213811119C080E090E0892B21F07F
:103A80000E940813811114C080E090E0892B21F07E
:103A90000E94FE1281110FC080E090E0892B81F01E
:103AA0000E94F41281110AC008950E940000E4CF20
:103AB0000E940000E9CF0E940000EECF0C940000AD
:103AC000089590E0FC013197E231F10508F04EC015
:103AD0008827E057FF4F8F4F0C9429298091800051
:103AE0008F7703C0809180008F7D80938000089540
:103AF00080918000877FF9CF84B58F7702C084B52D
:103B00008F7D84BD08958091B0008F7703C0809130
:103B1000B0008F7D8093B0000895809190008F77E2
:103B200007C0809190008F7D03C080919000877FB7
:103B30008093900008958091A0008F7707C08091B6
:103B4000A0008F7D03C08091A000877F8093A0009C
:103B50000895809120018F7707C0809120018F7D8B
:103B600003C080912001877F80932001089585ED17
:103B70008093BC008091BC0084FDFCCF1092210595
:103B80000895E0911B05F0911C05309729F01092E3
:103B900023051092220519940895CF93DF93AC0169
:103BA000E0911D05F0911E053097F1F090912505EB
:103BB000809124059817C0F090E0292F30E0261757
:103BC000370754F4D901AA52B34FEA01C20FD31FE9
:103BD00088818C939F5FF1CF109225056093240517
:103BE000CB01DF91CF911994DF91CF910895089582
:103BF000E091250580912405E81730F4F0E0EA52C1
:103C0000F34F808190E008958FEF9FEF089590919A
:103C1000250580912405981750F4E92FF0E0EA5229
:103C2000F34F208130E09F5F9093250502C02FEF76
:103C30003FEFC90108958091240590E0209125056A
:103C4000821B91090895FC01A089B1898C91A689F4
:103C5000B78982FD0FC09C91818D8F5F8F73228DFC
:103C6000821749F0218DDF01A20FB11D5D969C9353
:103C7000818F08958C910895FC01848DDF01A80F38
:103C8000B11DA35ABF4F2C91848D90E001968F7384
:103C90009927848FA689B7892C93A089B1898C91A3
:103CA00080648C93938D848D981306C00288F38969
:103CB000E02D80818F7D80830895EF92FF920F9396
:103CC0001F93CF93DF93EC0181E0888F9B8D8C8DC8
:103CD000981305C0E889F989808185FD23C0F62EF7
:103CE0000B8D10E00F5F1F4F0F731127E02E8C8D8F
:103CF000E8120BC00FB607FCFACFE889F98980817A
:103D000085FFF5CFCE01B8DFF2CF8B8DFE01E80F36
:103D1000F11DE35AFF4FF0820B8FEA89FB89808106
:103D2000806207C0EE89FF896083E889F989808114
:103D30008064808381E090E0DF91CF911F910F91AB
:103D4000FF90EF900895CF93DF93EC01888D882347
:103D5000C1F0EA89FB89808185FD05C0A889B98900
:103D60008C9186FD0EC00FB607FCF5CF808185FFD4
:103D7000F2CFA889B9898C9185FFEDCFCE017CDF88
:103D8000E8CFDF91CF910895CF93DF93282F30E0D4
:103D9000F901EE5AFD4F8491F901EE50FE4FD49196
:103DA000F901EE56FE4FC491CC2389F0811189DED2
:103DB000EC2FF0E0EE0FFF1FE858FE4FA591B491F5
:103DC000EC91ED2381E090E021F480E002C080E0FE
:103DD00090E0DF91CF9108951F93CF93DF93282F29
:103DE00030E0F901EE5AFD4F8491F901EE50FE4F9B
:103DF000D491F901EE56FE4FC491CC23C1F0162F99
:103E000081115FDEEC2FF0E0EE0FFF1FE25AFE4F54
:103E1000A591B4918FB7F894111105C09C91ED2F25
:103E2000E095E92302C0EC91ED2BEC938FBFDF917D
:103E3000CF911F910895CF93DF9390E0FC01EE5056
:103E4000FE4F2491FC01EE56FE4F8491882361F1D0
:103E500090E0880F991FFC01EC5BFE4FC591D49157
:103E6000FC01E25AFE4FA591B491611109C09FB7C0
:103E7000F8948881209582238883EC912E230BC0AF
:103E8000623061F49FB7F8943881822F8095832344
:103E90008883EC912E2B2C939FBF06C08FB7F8948C
:103EA000E8812E2B28838FBFDF91CF9108952FB704
:103EB000F8946091620D7091630D8091640D909102
:103EC000650D2FBF08951F920F920FB60F92112408
:103ED0002F933F938F939F93AF93BF938091620DE6
:103EE0009091630DA091640DB091650D3091610DBD
:103EF00023E0230F2D3720F40196A11DB11D05C02D
:103F000026E8230F0296A11DB11D2093610D809319
:103F1000620D9093630DA093640DB093650D809135
:103F20005D0D90915E0DA0915F0DB091600D0196B9
:103F3000A11DB11D80935D0D90935E0DA0935F0D4B
:103F4000B093600DBF91AF919F918F913F912F9151
:103F50000F900FBE0F901F9018951F920F920FB6E3
:103F60000F9211240BB60F922F933F934F935F93B1
:103F70006F937F938F939F93AF93BF93EF93FF9331
:103F80008091B900887F803609F49CC068F588323A
:103F900009F45BC090F4803109F454C038F48823EC
:103FA00009F4F6C0883009F44DC0F5C0883109F431
:103FB0004CC0803209F45DC0EEC0803409F468C0A2
:103FC00048F4803309F455C0883309F0E4C0809385
:103FD000390DD8C0803509F44FC0883509F45DC06B
:103FE000883409F0D8C0D6C0883909F4C7C0A8F40D
:103FF000883709F467C038F4883609F463C080371D
:1040000009F460C0C8C0883809F4B8C0803909F420
:104010005FC0803809F0BFC05BC0803B09F486C038
:1040200038F4803A09F466C0883A09F47FC0B3C016
:10403000803C09F4A7C0883C09F4A4C0883B09F47B
:104040008AC0A9C080915C0D10C090915B0D8091D9
:104050005A0D981770F5E0915B0D81E08E0F8093FB
:104060005B0DF0E0E65CF24F80818093BB0085EC55
:1040700086C08093390D8EC0E0915B0D81E08E0F7C
:1040800080935B0D8091BB00F0E0E65CF24F808393
:1040900090915B0D80915A0D6EC0E0915B0D81E0B7
:1040A0008E0F80935B0D8091BB00F0E0E65CF24FD9
:1040B00080838091200581116DC081E080931F0570
:1040C00084EA61C083E0809321051092380DCFCF40
:1040D0008091380D803208F051C0E091380D81E0B8
:1040E0008E0F8093380D8091BB00F0E0E85EF24FB8
:1040F0008083BDCF85EC8093BC0010922105809118
:10410000380D803230F4E091380DF0E0E85EF24F87
:1041100010826091380D70E0E0912605F09127053E
:1041200088E19DE019951092380D35C084E08093A8
:1041300021051092170D1092160DE0912805F091AF
:10414000290519958091160D811105C081E0809394
:10415000160D1092F60CE091170D81E08E0F8093F2
:10416000170DF0E0EA50F34F80818093BB009091EF
:10417000170D8091160D981708F479CF85E8809374
:10418000BC0009C085EC8093BC001092210503C0DF
:104190001092390DECDCFF91EF91BF91AF919F919F
:1041A0008F917F916F915F914F913F912F910F90E0
:1041B0000BBE0F900FBE0F901F9018954091160DDB
:1041C000262F30E0240F311D21323105DCF42091FF
:1041D00021052430C9F4FC0180E090E0861758F4F2
:1041E0003091160D2191DC01AA50B34FA30FB11DE0
:1041F0002C930196F3CF8091160D680F6093160DE6
:1042000080E0089581E0089582E008950F931F9360
:10421000CF93DF93C5E0D9E002EE12E0AB971D83A8
:104220000C83888999890E94C62988E0C935D807F6
:10423000A9F78AE699E00E94090484EB99E00E94BC
:1042400009048FE89AE00E94090484EA9BE00E9436
:1042500009048CED93E09093BA0C8093B90C809193
:104260004208882319F0815080934208DF91CF9152
:104270001F910F910895789484B5826084BD84B5B0
:10428000816084BD85B5826085BD85B5816085BD51
:1042900080916E00816080936E0010928100809109
:1042A0008100826080938100809181008160809391
:1042B0008100809180008160809380008091B100B6
:1042C00084608093B1008091B00081608093B000E1
:1042D0008091910082608093910080919100816033
:1042E00080939100809190008160809390008091F4
:1042F000A10082608093A1008091A10081608093E1
:10430000A1008091A00081608093A0008091210194
:10431000826080932101809121018160809321013D
:104320008091200181608093200180917A008460D7
:1043300080937A0080917A00826080937A008091E5
:104340007A00816080937A0080917A0080688093FF
:104350007A001092C10089E194E09093CD0C809393
:10436000CC0C80EF93E09093CF0C8093CE0C81E245
:1043700094E09093D30C8093D20CCBEBDCE02097AD
:1043800059F0E881F9810280F381E02DCE01199581
:104390000884D985C02DF3CF83E290E09093D50CAB
:1043A0008093D40C60E018DD60E083E244DD8CEAA9
:1043B0008093BA0081EC9DE19093290580932805B4
:1043C0008DEC9DE19093270580932605109225059D
:1043D00010922405109223051092220510922105B7
:1043E00081E08093200510921F0561E089E1F4DCF3
:1043F00061E088E1F1DC8091B9008E7F8093B900A3
:104400008091B9008D7F8093B90088E48093B800D3
:1044100085E48093BC0081EB9DE090931E05809322
:104420001D058BE49DE090931C0580931B05F8947B
:1044300080913808909139088A30910581F083FD88
:1044400002C028E001C028E28770822B98E10FB6F5
:10445000F894A895909360000FBE809360007894C4
:10446000C8E1DEE01FE009E2F894E0913A08F0913B
:104470003B08309761F0C280D380E480F5800E94D1
:104480007B046C157D058E059F0508F0F3C07894BC
:1044900080913C0890913D080097A1F0A895DC011F
:1044A000ED91FC910190F081E02D199580913C08EF
:1044B00090913D086BD7F89410923D0810923C08FB
:1044C0007894D2CFA89583B7816083BFF894809108
:1044D0003A0890913B087894892B09F447C0F894E6
:1044E000E0902E08F0902F080E947B04E0913A089B
:1044F000F0913B08309729F082809380A480B580AA
:1045000003C0812C912C54017894EF28D9F46815BC
:1045100079058A059B0508F07BC0A5019401261B3F
:10452000370B480B590BDA01C90109F471C020910E
:10453000420821112BC0803234E09307A105B10558
:1045400028F129C08091600080658093600080918F
:104550003E0890913F08A0914008B091410888160C
:104560009906AA06BB0608F045C010C08091420813
:1045700081110CC00FB6F894A895809160008861F5
:1045800080936000109260000FBE34C083B7817FBB
:1045900083BF88953DC080923E0890923F08A092CC
:1045A0004008B0924108813E20E29207A105B10582
:1045B00008F46FC00FB6F894A895C09360000FBEC2
:1045C000009360008FED90E2A0E0B0E0F89490934B
:1045D0002F0880932E088091600080658093600092
:1045E00066DC6093300870933108809332089093B2
:1045F00033087894F89483B7817F846083BF809177
:104600007A0010927A0078948895811180937A00CC
:1046100083B78E7F83BFF89480912E0890912F08E6
:104620007894892B09F020CFF894809138089091E4
:10463000390878948A30910589F0A89583FD02C0E5
:1046400028E001C028E28770822B0FB6F894A89565
:10465000C09360000FBE8093600006CF0FB6F89441
:10466000A89580916000886180936000109260003E
:104670000FBEFACEE0913A08F0913B08F0933D0866
:10468000E0933C088681978190933B0880933A0899
:10469000FECE833740E19407A105B10570F088E2B2
:1046A0000FB6F894A895C09360000FBE8093600089
:1046B00081E790E1A0E0B0E089CF8C339840A1057C
:1046C000B10568F00FB6F894A895C09360000FBECE
:1046D000109360008AE398E0A0E0B0E077CF0FB6D7
:1046E000F894A895C09360000FBED09360008EE14F
:1046F00094E0A0E0B0E06ACFFF920F931F93CF93B6
:10470000DF93EC0100E010E0F12C8C899D89081703
:104710001907BCF4EA89FB899801220F331FE20FC5
:10472000F31F80819181DC01ED91FC910480F58182
:10473000E02D1995892B11F0FF24F3940F5F1F4F83
:10474000E4CFFF2029F0F894CE010E94240578944C
:1047500042E350E060E070E0CE014096DF91CF91FF
:104760001F910F91FF900C941F144097C5CFBF92DB
:10477000CF92DF92EF92FF920F931F93CF93DF932D
:10478000EC01C12CD12CE12CF12CB12C8C899D8910
:10479000E816F906B4F40A891B890C0D1D1DC80121
:1047A00048960E94FC10F80186899789892B11F0A0
:1047B000BB24B394FFEFEF1AFF0A8BE2C80ED11CA3
:1047C000E5CFBB2029F0F894CE010E94240578940F
:1047D00044E650E060E070E0CE014096DF91CF917A
:1047E0001F910F91FF90EF90DF90CF90BF900C94AE
:1047F0001F144097BCCFEF92FF920F931F93CF935C
:10480000DF93EC012F8D38A189A190E06D8D7E8D15
:10481000869FA001879F500D969F500D112466E042
:10482000649F8001659F100D11244AA1442339F033
:104830000B5F1F4F020F131FF12CE12C30C0880FAC
:10484000991FEF89F88DE80FF91F61E08081F3DA95
:1048500089A12F89988DE22FF92FE80FF11DE80F1C
:10486000F11D60E08081B8DA81E08AA33DC0880F45
:10487000991FEB8DFC8DE80FF91F808185DA21E00F
:10488000892B09F020E0F80131972083F80180811D
:10489000281711F0EE24E394F3940A5F1F4F8F2D35
:1048A00090E02D8D3E8D821793070CF389A12F89FF
:1048B000988DE22FF92FE80FF11DE80FF11D62E04E
:1048C0008081B9DA1AA289A18F5F89A390E0298D2E
:1048D0003A8D8217930709F419A2EE2029F0F89473
:1048E000CE010E942405789442E350E060E070E03D
:1048F000CE010F96DF91CF911F910F91FF90EF9016
:104900000C941F140F9777CF2F923F924F925F9284
:104910006F927F928F929F92AF92BF92CF92DF92CF
:10492000EF92FF920F931F93CF93DF93EAE2F5E0AC
:104930001382128288EE93E0A0E0B0E08483958336
:10494000A683B7832AEA32E03183208345E351E02E
:104950005587448744E351E05787468740E351E059
:10496000518B408B41E351E0538B428B42E351E04A
:10497000558B448B46E351E0578B468B118E128E3C
:10498000138E148EE7ECF5E01382128284839583F4
:10499000A683B7833183208345ED50E05587448754
:1049A00044ED50E05787468740ED50E0518B408BF7
:1049B00041ED50E0538B428B42ED50E0558B448BE0
:1049C00046ED50E0578B468B118E128E138E148E4F
:1049D000E4E6F6E01382128284839583A683B7838C
:1049E000318320834DEC50E0558744874CEC50E0F8
:1049F0005787468748EC50E0518B408B49EC50E09C
:104A0000538B428B4AEC50E0558B448B4EEC50E07C
:104A1000578B468B118E128E138E148EE1E0F7E0C9
:104A20001382128284839583A683B7833183208384
:104A300025EC30E03587248724EC30E03787268763
:104A400020EC30E0318B208B21EC30E0338B228B5B
:104A500022EC30E0358B248B26EC30E0378B268B34
:104A6000118E128E138E148EEEE9F7E013821282ED
:104A700084839583A683B7838AEB92E091838083B6
:104A8000EAEAF7E0138212828AED92E09183808352
:104A9000C8E3D8E089E090E09983888310923408D5
:104AA000109235081092360810923708109230088C
:104AB00010923108109232081092330810922F0889
:104AC00010922E081B821A821D821C821E821F8257
:104AD000188619861A8689EBE82E8CE0F82E8CED64
:104AE00093E0D7018D939C9309E214E02EE234E029
:104AF00041E050E0B7018BEB9CE00E94510588EC4F
:104B000093E0F70193838283128A118A8A858F5FEB
:104B10008A8784EE93E09183808391EDE92E9BE078
:104B2000F92ECCEBD3E0D7011196DC93CE9380E540
:104B300090E013969C938E931297CC24C394D12C1F
:104B40001596DC92CE921497EBE3F0E01796FC9367
:104B5000EE9316975E96DC93CE935D9781E590E099
:104B600090969C938E935F979296DC92CE929197BB
:104B70008CE390E094969C938E939397DB96DC93D2
:104B8000CE93DA9782E590E0DD969C938E93DC9746
:104B9000D092100CC0920F0CADE3B0E0B093120CA9
:104BA000A093110CD093290CC093280C83E590E0BE
:104BB00090932B0C80932A0CD0922D0CC0922C0C2D
:104BC000EEE3F0E0F0932F0CE0932E0CD093460C24
:104BD000C093450C84E590E09093480C8093470C7B
:104BE000D0924A0CC092490C8FE390E090934C0C09
:104BF00080934B0CD093630CC093620C85E590E0DE
:104C00009093650C8093640CD092670CC092660CF4
:104C100080E490E09093690C8093680CD093800CB2
:104C2000C0937F0C86E590E09093820C8093810C7A
:104C3000D092840CC092830C81E490E09093860C17
:104C40008093850CD0939D0CC0939C0C87E590E0DD
:104C500090939F0C80939E0CD092A10CC092A00CBC
:104C600082E490E09093A30C8093A20C03E314E001
:104C70002EE334E044E050E069EB7CE084EA9BE022
:104C80000E94510584EA9BE03AE9632E33E0732EDB
:104C9000DC016D927C9226E0E8E7F2E0A3EBBBE05A
:104CA00001900D922A95E1F748E0442E512CFC0129
:104CB000568A458AF08EE78A60E470E08DEB9BE0CF
:104CC0000E94E1115CEBA52E5AE0B52ED50111969C
:104CD000DC93CE9380E190E013969C938E93129791
:104CE00061E1E62EF12C1596FC92EE921497179640
:104CF0001C921E9216975E96DC93CE935D979096CB
:104D0000FC92EE925F979296FC92EE929197949617
:104D1000DC92CE929397DB96DC93CE93DA97E2E126
:104D2000F0E0DD96FC93EE93DC97F092FB0AE092C4
:104D3000FA0A82E090E09093FD0A8093FC0AD093F7
:104D4000140BC093130B83E190E09093160B8093A8
:104D5000150BF092180BE092170BA3E0B0E0B093A4
:104D60001A0BA093190BD093310BC093300B84E135
:104D700090E09093330B8093320BF092350BE092DE
:104D8000340B74E0872E912C9092370B8092360B67
:104D9000D0934E0BC0934D0B85E190E09093500B58
:104DA00080934F0BF092520BE092510BE5E0F0E054
:104DB000F093540BE093530BD0936B0BC0936A0B9F
:104DC00086E190E090936D0B80936C0BF0926F0BEB
:104DD000E0926E0BE6E02E2E312C3092710B209279
:104DE000700BD093880BC093870B87E190E0909372
:104DF0008A0B8093890BF0928C0BE0928B0B87E0EF
:104E000090E090938E0B80938D0B0DE414E024E5DD
:104E100034E044E050E069EB7CE08FE89AE00E94E7
:104E200051058FE89AE0DC016D927C9226E0E8E77C
:104E3000F2E0AEE9BAE001900D922A95E1F7FC01AB
:104E4000568A458AB08EA78A60E470E088EA9AE0C4
:104E50000E94E111F1EEAF2EF9E0BF2ED5011196BF
:104E6000DC93CE93EBE3F0E01396FC93EE93129772
:104E70001596FC92EE92149717961C921E92169716
:104E80005E96DC93CE935D978CE390E090969C9336
:104E90008E935F979296FC92EE9291979496DC9205
:104EA000CE929397DB96DC93CE93DA97EDE3F0E026
:104EB000DD96FC93EE93DC97F092200AE0921F0AB5
:104EC00082E090E09093220A8093210AD093390ADD
:104ED000C093380AAEE3B0E0B0933B0AA0933A0A1D
:104EE000F0923D0AE0923C0AE3E0F0E0F0933F0AE2
:104EF000E0933E0AD093560AC093550A8CE590E0A1
:104F00009093580A8093570AF0925A0AE092590AED
:104F100090925C0A80925B0AD093730AC093720AE3
:104F20008DE590E09093750A8093740AF092770A69
:104F3000E092760A85E090E09093790A8093780A6F
:104F40000BE514E025E634E044E050E069EB7CE05A
:104F500084EB99E00E94510584EB99E0DC016D92AD
:104F60007C9226E0E8E7F2E0A3ECB9E001900D9234
:104F70002A95E1F7FC01368A258AB08EA78A60E47B
:104F800070E08DEC99E00E94E111A7E9EA2EA9E01A
:104F9000FA2ED7011196DC93CE9385E390E0139619
:104FA0009C938E931297E2E1F0E01596FC93EE93BA
:104FB00014971796DC92CE9216970FE614E026E728
:104FC00034E044E050E069EB7CE08AE699E00E943E
:104FD0005105CAE6D9E07982688286E0E8E7F2E026
:104FE000A9E7B9E001900D928A95E1F7DE8ACD8AB2
:104FF000F88EEF8A60E470E083E899E00E94E111A6
:105000000DE714E024E834E044E050E069EB7CE094
:1050100087E499E00E945105C7E4D9E080E793E076
:105020009983888384E993E0988B8F8786E0E8E70B
:10503000F2E0A8E5B9E001900D928A95E1F780E7EA
:1050400092E0988F8F8B9A8E898E88E692E09C8F63
:105050008B8F9E8E8D8E88E092E098A38F8FCFE20B
:10506000D9E01B821A8280E693E0998388838FE3DC
:105070008C8383E38D8384E38E8388E58F8389E546
:1050800088878AE589878EE58A871B861C861D8628
:105090001E861F8661E0CE010E941C130BE814E0FF
:1050A0002FE834E04AE050E069EB7CE08BE199E0E6
:1050B0000E945105EBE1F9E082E493E09183808363
:1050C000D08BC7878BE590E0938B828B03E914E04C
:1050D0002AE934E046E050E069EB7CE085E099E0C5
:1050E0000E945105E5E0F9E08CE193E09183808333
:1050F0008CE393E0918B808B80E092E0938B828BAA
:10510000958A848AC9E5D8E01BE2DE01E12F1D9271
:10511000EA95E9F78BE490E0998388838CE490E04A
:105120009B838A8360E470E08DE598E00E94E11142
:10513000E4E8F8E0DF01812F1D928A95E9F78DE41C
:1051400090E09CA78BA78EE490E09EA78DA760E4DB
:1051500070E088E898E00E94E111EFEAF8E0DF01F2
:10516000812F1D928A95E9F78CE090E091838083EE
:105170008DE090E09093B2088093B10860E470E015
:1051800083EB98E00E94E111EAEDF8E0DF011D9267
:105190001A95E9F78EE090E0918380838FE090E0AC
:1051A0009093DD088093DC0860E470E08EED98E079
:1051B0000E94E11101EA14E029EA34E046E050E0FF
:1051C00069EB7CE083E498E00E945105E3E4F8E0B9
:1051D00086EF92E09183808386E193E0918B808BD0
:1051E000D38BC28B958A848ADF91CF911F910F91C7
:1051F000FF90EF90DF90CF90BF90AF909F908F90F7
:105200007F906F905F904F903F902F900895A1E214
:105210001A2EAA1BBB1BFD010DC0AA1FBB1FEE1F30
:10522000FF1FA217B307E407F50720F0A21BB30B7B
:10523000E40BF50B661F771F881F991F1A9469F7F7
:1052400060957095809590959B01AC01BD01CF0153
:105250000895EE0FFF1F881F8BBF0790F691E02D7A
:105260001994CF93DF938230910510F482E090E09F
:10527000E091680DF091690D20E030E0C0E0D0E0F1
:10528000309711F14081518148175907C0F04817F4
:10529000590761F482819381209719F09B838A8357
:1052A0002BC09093690D8093680D26C021153105A0
:1052B00019F04217530718F49A01BE01DF01EF01FC
:1052C0000280F381E02DDCCF2115310509F1281B87
:1052D000390B2430310590F412968D919C911397DF
:1052E0006115710521F0FB019383828304C09093C3
:1052F000690D8093680DFD01329644C0FD01E20FF7
:10530000F31F81939193225031092D933C933AC01E
:105310002091660D3091670D232B41F4209180027E
:10532000309181023093670D2093660D20917E02AB
:1053300030917F022115310541F42DB73EB74091E0
:10534000820250918302241B350BE091660DF0918F
:10535000670DE217F307A0F42E1B3F0B2817390740
:1053600078F0AC014E5F5F4F2417350748F04E0FC1
:105370005F1F5093670D4093660D8193919302C018
:10538000E0E0F0E0CF01DF91CF9108950F931F93FC
:10539000CF93DF93009709F48CC0FC0132971382FE
:1053A00012820091680D1091690D0115110581F4AB
:1053B00020813181820F931F2091660D3091670DFE
:1053C0002817390779F5F093670DE093660D71C0E2
:1053D000D80140E050E0AE17BF0750F412962D916F
:1053E0003C911397AD012115310509F1D901F3CF96
:1053F0009D01DA013383228360817181860F971FBB
:105400008217930769F4EC0128813981260F371F31
:105410002E5F3F4F318320838A819B8193838283D8
:10542000452B29F4F093690DE093680D42C0139663
:10543000FC93EE931297ED01499159919E01240F2F
:10544000351FE217F30771F480819181840F951F56
:10545000029611969C938E938281938113969C93CE
:105460008E931297E0E0F0E0D80112968D919C9116
:105470001397009719F0F8018C01F6CF8D919C914C
:1054800098012E5F3F4F820F931F2091660D309140
:10549000670D2817390769F4309729F41092690DC0
:1054A0001092680D02C0138212821093670D009350
:1054B000660DDF91CF911F910F91089581E090E0EB
:1054C000F89400C011E0CAE5D1E000E005C0802FEB
:1054D000FE01BFDE2196011DCB35D10780E0080714
:0654E000B1F7F894FFCFC4
:1054E60001076406C7052A05010002000000010045
:1054F6000300000001000400000001001E0000007F
:105506000100050000000100060000000100070080
:10551600000001003000000001000800000001004A
:105526000900000001000A00000001002E00000032
:1055360001000100000001000B00000001001C003A
:10554600000001002000000000000100020003002E
:1055560004000500060007005600170001010000C0
:105566006A0D800000000000F212DE01DD01DC01A0
:10557600DA01D901DB01D801F804D504B204000030
:105586000000CC01CA01000000005D1EC712281DE4
:10559600061D1A1DA31E00000000550D360D1B1E0C
:1055A600071EF81DF71D00000000F212C712F212C6
:1055B600F212F212F212000000002C0DC7120000C7
:1055C6000000E80CC712E40C0A0DC50CC40CDC0C78
:1055D600BE0C000000007D055B19F617DC01DA0140
:1055E600D901DB01040EEC0DB10AB00A4F0CA40A76
:1055F600B723F0FF0000F923000000007D051A190B
:105606008418DC01DA01D901DB01040EEC0D6D17FB
:10561600071BA01A57177C23F0FF0000B5230000D4
:105626000000040AA5036F039F03DA01D901DB0119
:10563600D8017403C90190018D0199020000000090
:105646008112C71200000000F212C712000000000B
:105656005407C81838182A07DA01D901DB019D0654
:1056660055174E173F1729172F1728179A17FB2379
:10567600F1FF00008224000000005407701C151C76
:105686002A07DA01D901DB019D06981795178617B7
:105696007017321A061C491B00000000DF010000CB
:1056A6000000F21200000000B40ADE01DD01DC0198
:1056B600DA01D901DB01D80100000000C603160497
:1056C60000000000920D7C0D5665726964697320B6
:1056D600413430300047656E657269630045787005
:1056E600616E6475696E6F00657870616E64756968
:1056F6006E6F004E2F41002D005665726964697306
:105706000061343030000D0A006D657461004D652E
:105716007461006469676974616C5F696E004469ED
:10572600676974616C20496E707574730072656C7C
:105736006179730052656C61797300706963746F87
:105746006772616D00506963746F6772616D0062A4
:10575600757A7A65720042757A7A6572006B657938
:10576600706164004B6579706164006C6364004C21
:1057760043440073657269616C0053657269616CBC
:105786000077696567616E640057696567616E6475
:02579600000011
:020000023000CC
:10E000000D9489F10D94B2F10D94B2F10D94B2F129
:10E010000D94B2F10D94B2F10D94B2F10D94B2F1F0
:10E020000D94B2F10D94B2F10D94B2F10D94B2F1E0
:10E030000D94B2F10D94B2F10D94B2F10D94B2F1D0
:10E040000D94B2F10D94B2F10D94B2F10D94B2F1C0
:10E050000D94B2F10D94B2F10D94B2F10D94B2F1B0
:10E060000D94B2F10D94B2F10D94B2F10D94B2F1A0
:10E070000D94B2F10D94B2F10D94B2F10D94B2F190
:10E080000D94B2F10D94B2F10D94B2F10D94B2F180
:10E090000D94B2F10D94B2F10D94B2F10D94B2F170
:10E0A0000D94B2F10D94B2F10D94B2F10D94B2F160
:10E0B0000D94B2F10D94B2F10D94B2F10D94B2F150
:10E0C0000D94B2F10D94B2F10D94B2F10D94B2F140
:10E0D0000D94B2F10D94B2F10D94B2F10D94B2F130
:10E0E0000D94B2F141546D656761323536300041AF
:10E0F000726475696E6F206578706C6F72657220DE
:10E1000073746B3530305632206279204D4C530099
:10E11000426F6F746C6F616465723E004875683F52
:10E1200000436F6D70696C6564206F6E203D200048
:10E130004350552054797065202020203D20005FF9
:10E140005F4156525F415243485F5F3D2000415658
:10E1500052204C696243205665723D20004743437C
:10E160002056657273696F6E203D20004350552024
:10E1700049442020202020203D20004C6F7720663D
:10E18000757365202020203D20004869676820665F
:10E190007573652020203D200045787420667573D6
:10E1A00065202020203D20004C6F636B2066757336
:10E1B000652020203D20004D617220203720323024
:10E1C000313300312E362E3800342E332E350056A2
:10E1D00023202020414444522020206F7020636F70
:10E1E00064652020202020696E73747275637469E1
:10E1F0006F6E2061646472202020496E74657272B3
:10E20000757074006E6F20766563746F7200726A49
:10E210006D702020006A6D70200057686174207056
:10E220006F72743A00506F7274206E6F7420737541
:10E2300070706F72746564004D7573742062652030
:10E2400061206C6574746572002000577269747483
:10E25000696E672045450052656164696E672045B7
:10E26000450045452065727220636E743D00504F35
:10E27000525400303D5A65726F2061646472003FF1
:10E280003D43505520737461747300403D454550C3
:10E29000524F4D207465737400423D426C696E6B41
:10E2A000204C454400453D44756D70204545505215
:10E2B0004F4D00463D44756D7020464C415348001B
:10E2C000483D48656C70004C3D4C69737420492F83
:10E2D0004F20506F72747300513D51756974005234
:10E2E0003D44756D702052414D00563D73686F7707
:10E2F00020696E7465727275707420566563746FF0
:10E30000727300593D506F727420626C696E6B00BD
:10E310002A0011241FBECFEFD1E2DEBFCDBF01E046
:10E320000CBF12E0A0E0B2E0EEE1FDEF03E00BBFB6
:10E3300002C007900D92A030B107D9F712E0A0E01B
